{
  "contractName": "ERC20Token",
  "abi": [
    {
      "constant": true,
      "inputs": [],
      "name": "name",
      "outputs": [
        {
          "name": "",
          "type": "string"
        }
      ],
      "payable": false,
      "type": "function"
    },
    {
      "constant": false,
      "inputs": [
        {
          "name": "_spender",
          "type": "address"
        },
        {
          "name": "_value",
          "type": "uint256"
        }
      ],
      "name": "approve",
      "outputs": [
        {
          "name": "success",
          "type": "bool"
        }
      ],
      "payable": false,
      "type": "function"
    },
    {
      "constant": true,
      "inputs": [],
      "name": "totalSupply",
      "outputs": [
        {
          "name": "",
          "type": "uint256"
        }
      ],
      "payable": false,
      "type": "function"
    },
    {
      "constant": false,
      "inputs": [
        {
          "name": "_from",
          "type": "address"
        },
        {
          "name": "_to",
          "type": "address"
        },
        {
          "name": "_value",
          "type": "uint256"
        }
      ],
      "name": "transferFrom",
      "outputs": [
        {
          "name": "success",
          "type": "bool"
        }
      ],
      "payable": false,
      "type": "function"
    },
    {
      "constant": true,
      "inputs": [],
      "name": "decimals",
      "outputs": [
        {
          "name": "",
          "type": "uint8"
        }
      ],
      "payable": false,
      "type": "function"
    },
    {
      "constant": true,
      "inputs": [],
      "name": "version",
      "outputs": [
        {
          "name": "",
          "type": "string"
        }
      ],
      "payable": false,
      "type": "function"
    },
    {
      "constant": true,
      "inputs": [
        {
          "name": "_owner",
          "type": "address"
        }
      ],
      "name": "balanceOf",
      "outputs": [
        {
          "name": "balance",
          "type": "uint256"
        }
      ],
      "payable": false,
      "type": "function"
    },
    {
      "constant": true,
      "inputs": [],
      "name": "symbol",
      "outputs": [
        {
          "name": "",
          "type": "string"
        }
      ],
      "payable": false,
      "type": "function"
    },
    {
      "constant": false,
      "inputs": [
        {
          "name": "_to",
          "type": "address"
        },
        {
          "name": "_value",
          "type": "uint256"
        }
      ],
      "name": "transfer",
      "outputs": [
        {
          "name": "success",
          "type": "bool"
        }
      ],
      "payable": false,
      "type": "function"
    },
    {
      "constant": false,
      "inputs": [
        {
          "name": "_spender",
          "type": "address"
        },
        {
          "name": "_value",
          "type": "uint256"
        },
        {
          "name": "_extraData",
          "type": "bytes"
        }
      ],
      "name": "approveAndCall",
      "outputs": [
        {
          "name": "success",
          "type": "bool"
        }
      ],
      "payable": false,
      "type": "function"
    },
    {
      "constant": true,
      "inputs": [
        {
          "name": "_owner",
          "type": "address"
        },
        {
          "name": "_spender",
          "type": "address"
        }
      ],
      "name": "allowance",
      "outputs": [
        {
          "name": "remaining",
          "type": "uint256"
        }
      ],
      "payable": false,
      "type": "function"
    },
    {
      "inputs": [],
      "type": "constructor"
    },
    {
      "payable": false,
      "type": "fallback"
    },
    {
      "anonymous": false,
      "inputs": [
        {
          "indexed": true,
          "name": "_from",
          "type": "address"
        },
        {
          "indexed": true,
          "name": "_to",
          "type": "address"
        },
        {
          "indexed": false,
          "name": "_value",
          "type": "uint256"
        }
      ],
      "name": "Transfer",
      "type": "event"
    },
    {
      "anonymous": false,
      "inputs": [
        {
          "indexed": true,
          "name": "_owner",
          "type": "address"
        },
        {
          "indexed": true,
          "name": "_spender",
          "type": "address"
        },
        {
          "indexed": false,
          "name": "_value",
          "type": "uint256"
        }
      ],
      "name": "Approval",
      "type": "event"
    }
  ],
  "bytecode": "0x6060604052604060405190810160405280600381526020017f312e30000000000000000000000000000000000000000000000000000000000081526020015060066000509080519060200190828054600181600116156101000203166002900490600052602060002090601f016020900481019282601f1061008c57805160ff19168380011785556100bd565b828001600101855582156100bd579182015b828111156100bc57825182600050559160200191906001019061009e565b5b5090506100e891906100ca565b808211156100e457600081815060009055506001016100ca565b5090565b50505b6a52b7d2dcc80cd2e4000000600060005060003373ffffffffffffffffffffffffffffffffffffffff168152602001908152602001600020600050819055506a52b7d2dcc80cd2e4000000600260005081905550604060405190810160405280600a81526020017f427269646765546573740000000000000000000000000000000000000000000081526020015060036000509080519060200190828054600181600116156101000203166002900490600052602060002090601f016020900481019282601f106101c757805160ff19168380011785556101f8565b828001600101855582156101f8579182015b828111156101f75782518260005055916020019190600101906101d9565b5b5090506102239190610205565b8082111561021f5760008181506000905550600101610205565b5090565b50506012600460006101000a81548160ff02191690837f0100000000000000000000000000000000000000000000000000000000000000908102040217905550604060405190810160405280600581526020017f425445535400000000000000000000000000000000000000000000000000000081526020015060056000509080519060200190828054600181600116156101000203166002900490600052602060002090601f016020900481019282601f106102eb57805160ff191683800117855561031c565b8280016001018555821561031c579182015b8281111561031b5782518260005055916020019190600101906102fd565b5b5090506103479190610329565b808211156103435760008181506000905550600101610329565b5090565b50505b610d48806103586000396000f3606060405236156100ab576000357c01000000000000000000000000000000000000000000000000000000009004806306fdde03146100bd578063095ea7b31461013d57806318160ddd1461017957806323b872dd146101a1578063313ce567146101e657806354fd4d501461021157806370a082311461029157806395d89b41146102c2578063a9059cbb14610342578063cae9ca511461037e578063dd62ed3e14610401576100ab565b34610002576100bb5b610002565b565b005b34610002576100cf600480505061043b565b60405180806020018281038252838181518152602001915080519060200190808383829060006004602084601f0104600302600f01f150905090810190601f16801561012f5780820380516001836020036101000a031916815260200191505b509250505060405180910390f35b346100025761016160048080359060200190919080359060200190919050506104dc565b60405180821515815260200191505060405180910390f35b346100025761018b60048050506105b0565b6040518082815260200191505060405180910390f35b34610002576101ce60048080359060200190919080359060200190919080359060200190919050506105b9565b60405180821515815260200191505060405180910390f35b34610002576101f860048050506107c5565b604051808260ff16815260200191505060405180910390f35b346100025761022360048050506107d8565b60405180806020018281038252838181518152602001915080519060200190808383829060006004602084601f0104600302600f01f150905090810190601f1680156102835780820380516001836020036101000a031916815260200191505b509250505060405180910390f35b34610002576102ac6004808035906020019091905050610879565b6040518082815260200191505060405180910390f35b34610002576102d460048050506108b7565b60405180806020018281038252838181518152602001915080519060200190808383829060006004602084601f0104600302600f01f150905090810190601f1680156103345780820380516001836020036101000a031916815260200191505b509250505060405180910390f35b34610002576103666004808035906020019091908035906020019091905050610958565b60405180821515815260200191505060405180910390f35b34610002576103e96004808035906020019091908035906020019091908035906020019082018035906020019191908080601f016020809104026020016040519081016040528093929190818152602001838380828437820191505050505050909091905050610a98565b60405180821515815260200191505060405180910390f35b34610002576104256004808035906020019091908035906020019091905050610cdf565b6040518082815260200191505060405180910390f35b60036000508054600181600116156101000203166002900480601f0160208091040260200160405190810160405280929190818152602001828054600181600116156101000203166002900480156104d45780601f106104a9576101008083540402835291602001916104d4565b820191906000526020600020905b8154815290600101906020018083116104b757829003601f168201915b505050505081565b600081600160005060003373ffffffffffffffffffffffffffffffffffffffff16815260200190815260200160002060005060008573ffffffffffffffffffffffffffffffffffffffff168152602001908152602001600020600050819055508273ffffffffffffffffffffffffffffffffffffffff163373ffffffffffffffffffffffffffffffffffffffff167f8c5be1e5ebec7d5bd14f71427d1e84f3dd0314c0f7b2291e5b200ac8c7c3b925846040518082815260200191505060405180910390a3600190506105aa565b92915050565b60026000505481565b600081600060005060008673ffffffffffffffffffffffffffffffffffffffff1681526020019081526020016000206000505410158015610653575081600160005060008673ffffffffffffffffffffffffffffffffffffffff16815260200190815260200160002060005060003373ffffffffffffffffffffffffffffffffffffffff1681526020019081526020016000206000505410155b801561065f5750600082115b156107b45781600060005060008573ffffffffffffffffffffffffffffffffffffffff16815260200190815260200160002060008282825054019250508190555081600060005060008673ffffffffffffffffffffffffffffffffffffffff16815260200190815260200160002060008282825054039250508190555081600160005060008673ffffffffffffffffffffffffffffffffffffffff16815260200190815260200160002060005060003373ffffffffffffffffffffffffffffffffffffffff1681526020019081526020016000206000828282505403925050819055508273ffffffffffffffffffffffffffffffffffffffff168473ffffffffffffffffffffffffffffffffffffffff167fddf252ad1be2c89b69c2b068fc378daa952ba7f163c4a11628f55a4df523b3ef846040518082815260200191505060405180910390a3600190506107be566107bd565b600090506107be565b5b9392505050565b600460009054906101000a900460ff1681565b60066000508054600181600116156101000203166002900480601f0160208091040260200160405190810160405280929190818152602001828054600181600116156101000203166002900480156108715780601f1061084657610100808354040283529160200191610871565b820191906000526020600020905b81548152906001019060200180831161085457829003601f168201915b505050505081565b6000600060005060008373ffffffffffffffffffffffffffffffffffffffff1681526020019081526020016000206000505490506108b2565b919050565b60056000508054600181600116156101000203166002900480601f0160208091040260200160405190810160405280929190818152602001828054600181600116156101000203166002900480156109505780601f1061092557610100808354040283529160200191610950565b820191906000526020600020905b81548152906001019060200180831161093357829003601f168201915b505050505081565b600081600060005060003373ffffffffffffffffffffffffffffffffffffffff16815260200190815260200160002060005054101580156109995750600082115b15610a885781600060005060003373ffffffffffffffffffffffffffffffffffffffff16815260200190815260200160002060008282825054039250508190555081600060005060008573ffffffffffffffffffffffffffffffffffffffff1681526020019081526020016000206000828282505401925050819055508273ffffffffffffffffffffffffffffffffffffffff163373ffffffffffffffffffffffffffffffffffffffff167fddf252ad1be2c89b69c2b068fc378daa952ba7f163c4a11628f55a4df523b3ef846040518082815260200191505060405180910390a360019050610a9256610a91565b60009050610a92565b5b92915050565b600082600160005060003373ffffffffffffffffffffffffffffffffffffffff16815260200190815260200160002060005060008673ffffffffffffffffffffffffffffffffffffffff168152602001908152602001600020600050819055508373ffffffffffffffffffffffffffffffffffffffff163373ffffffffffffffffffffffffffffffffffffffff167f8c5be1e5ebec7d5bd14f71427d1e84f3dd0314c0f7b2291e5b200ac8c7c3b925856040518082815260200191505060405180910390a38373ffffffffffffffffffffffffffffffffffffffff1660405180807f72656365697665417070726f76616c28616464726573732c75696e743235362c81526020017f616464726573732c627974657329000000000000000000000000000000000000815260200150602e01905060405180910390207c0100000000000000000000000000000000000000000000000000000000900433853086604051857c0100000000000000000000000000000000000000000000000000000000028152600401808573ffffffffffffffffffffffffffffffffffffffff1681526020018481526020018373ffffffffffffffffffffffffffffffffffffffff1681526020018280519060200190808383829060006004602084601f0104600302600f01f150905090810190601f168015610ca75780820380516001836020036101000a031916815260200191505b509450505050506000604051808303816000876161da5a03f1925050501515610ccf57610002565b60019050610cd8565b9392505050565b6000600160005060008473ffffffffffffffffffffffffffffffffffffffff16815260200190815260200160002060005060008373ffffffffffffffffffffffffffffffffffffffff168152602001908152602001600020600050549050610d42565b9291505056",
  "compiler": {
    "name": "solc",
    "version": "0.4.4+commit.4633f3de.Emscripten.clang"
  },
  "schemaVersion": "3.4.3",
  "updatedAt": "2021-09-12T18:15:57.170Z"
}